:020000040800F2
:10000000005000200D0400085504000855040008A5
:1000100055040008550400085504000800000000BD
:10002000000000000000000000000000550400086F
:10003000550400080000000055040008550400089D
:10004000550400085504000855040008550400082C
:10005000550400085504000855040008550400081C
:10006000550400085504000855040008550400080C
:1000700055040008550400085504000855040008FC
:1000800055040008550400085504000855040008EC
:1000900055040008550400085504000855040008DC
:1000A00055040008550400085504000855040008CC
:1000B00055040008550400085504000855040008BC
:1000C00055040008550400085504000855040008AC
:1000D000550400085504000855040008550400089C
:1000E00055040008550400085504000800000000ED
:1000F0000000000000000000000000000000000000
:0C01000000000000000000005FF808F1A3
:10010C000348044B834202D0034B03B1184770479A
:10011C000800002008000020000000000548064BE5
:10012C001B1AD90F01EBA301491002D0034B03B1E9
:10013C00184770470800002008000020000000004D
:10014C0010B5064C237843B9FFF7DAFF044B13B113
:10015C000448AFF300800123237010BD0800002079
:10016C0000000000CC05000808B5054B1BB1054983
:10017C000548AFF30080BDE80840FFF7CFBF00BFD4
:10018C00000000000C000020CC05000870B5002613
:10019C000C4D0D4B5B1B9C10A64209D1002600F0A8
:1001AC000FFA0A4D0A4B5B1B9C10A64205D170BD81
:1001BC0055F8043B98470136EEE755F8043B984751
:1001CC000136F2E7E4050008E4050008E405000840
:1001DC00E805000880B500AF00F004F800F050F816
:1001EC00FCE7000080B483B000AF214B9B69204A30
:1001FC0043F00D0393611E4B9B697B607B681D4B29
:10020C005B6823F0E0631B4A43F0007353601A4BA6
:10021C001B68194A23F47F2323F47F631360164B66
:10022C001B68154A43F4082343F408631360124B0C
:10023C00DB68114A43F01E03D360104B1B680F4A56
:10024C0023F47F2323F0FF0313600C4B1B680B4A32
:10025C0043F4083343F022031360084BDB68074A6E
:10026C0023F01B03D36000BF0C37BD4680BC704726
:10027C00001002400000014000080140000C014049
:10028C0080B487B000AF584B9B6803F00203002B7F
:10029C0014BF01230023DBB2FB75534B9B6803F0A7
:1002AC000403002B14BF01230023DBB2BB754E4BA0
:1002BC009B6803F00803002B14BF01230023DBB25F
:1002CC007B75494B9B6803F01003002B14BF012373
:1002DC000023DBB23B75FB7D002B1AD1434B1B7803
:1002EC00012B16D100233B6102E03B6901333B61DA
:1002FC003B6947F22F529342F7DD3B4B9B6803F06F
:10030C000203002B05D13A4BDB68394A83F0010319
:10031C00D360364AFB7D1370BB7D002B1AD1354B55
:10032C001B78012B16D10023FB6002E0FB68013324
:10033C00FB60FB6847F22F529342F7DD2A4B9B6818
:10034C0003F00403002B05D1294BDB68284A83F00A
:10035C000203D360274ABB7D13707B7D002B1AD11F
:10036C00254B1B78012B16D10023BB6002E0BB6828
:10037C000133BB60BB6847F22F529342F7DD1A4B37
:10038C009B6803F00803002B05D1194BDB68184A56
:10039C0083F00803D360184A7B7D13703B7D002BE0
:1003AC001AD1164B1B78012B16D100237B6002E06F
:1003BC007B6801337B607B6847F22F529342F7DDF9
:1003CC00094B9B6803F01003002B05D1084BDB682D
:1003DC00074A83F01003D360084A3B7D137000BFBB
:1003EC001C37BD4680BC704700080140000000204F
:1003FC00000C01400100002002000020030000203E
:10040C0000F024F80B480C490C4A002302E0D458A5
:10041C00C4500433C4188C42F9D3094A094C002344
:10042C0001E013600432A242FBD3FFF7AFFEFFF7EB
:10043C00D1FE70470000002008000020EC050008E9
:10044C000800002024000020FEE7000080B483B0E8
:10045C0000AF00237B6000233B60544B1B68534A66
:10046C0043F001031360514B5A685049504B1340F1
:10047C004B604E4B1B684D4A23F0847323F480333E
:10048C0013604A4B1B68494A23F480231360474B83
:10049C005B68464A23F4FE035360444B4FF41F023F
:1004AC009A60424B1B68414A43F4803313603F4BC4
:1004BC001B6803F400333B607B6801337B603B6853
:1004CC00002B03D17B68B3F5A04FF0D1374B1B68E1
:1004DC0003F40033002B02D001233B6001E0002326
:1004EC003B603B68012B58D1324B1B68314A43F0BF
:1004FC00100313602F4B1B682E4A23F00703136065
:10050C002C4B1B682B4A43F004031360274B274AE0
:10051C005B685360254B254A5B685360234B5B68D3
:10052C00224A43F480635360204B5B681F4A43F4B8
:10053C00004353601D4B5B681C4A23F480035360DB
:10054C001A4B5B68194A23F47C135360174B5B6896
:10055C00164A43F4E8135360144B1B68134A43F0D8
:10056C008073136000BF114B1B6803F00073002BEA
:10057C00F9D00E4B5B680D4A23F0030353600B4B11
:10058C005B680A4A43F00203536000BF074B5B6889
:10059C0003F00C03082BF9D102E0074B074A1A6051
:1005AC0000BF0C37BD4680BC704700BF0010024036
:1005BC000000FFF0002002400400002000127A002E
:1005CC00F8B500BFF8BC08BC9E467047F8B500BF34
:0805DC00F8BC08BC9E46704704
:0405E4007501000895
:0405E8004D010008B9
:0805EC000101010100A24A0413
:040000050800040DDE
:00000001FF
